:1000000000800120E904000089950100617F000063
:1000100000000000000000000000000000000000E0
:100020000000000000000000000000008BAB010099
:100030000000000000000000A169000039B40000C9
:10004000490500004D050000510500005505000060
:1000500031050000310500003105000031050000C8
:10006000590500005D050000610500003105000034
:100070006505000031050000310500003105000074
:100080003105000031050000310500003105000098
:100090003105000031050000310500003105000088
:1000A0003105000031050000310500003105000078
:1000B0003105000069050000310500003105000030
:10040000FFFFFFFFFFFFFFFFFFFFFFFFFEFFFFFFFD
:1004200010B5064C2378002B07D1054B002B02D0CA
:10043000044800E000BF0123237010BDD80600204F
:100440000000000094FD0100044B10B5002B03D008
:100450000349044800E000BF10BDC0460000000092
:10046000DC06002094FD0100402292029A1A924676
:100470007047C046174B002B00D1134B9D46FFF72A
:10048000F3FF00218B460F461348144A121A19F045
:10049000C3FC0E4B002B00D098470D4B002B00D017
:1004A00098470020002104000D000D48002802D0CC
:1004B0000C4819F0BBFD19F03BFC2000290010F09E
:1004C000C3FD19F025FCC046000008000000000034
:1004D0000000000000800120D8060020084E002007
:1004E0002DA001003DA0010072B60A480A49016032
:1004F0000A6882F30888094880470949094A0A4B73
:100500009B1A03DD043BC858D050FBDC62B6074899
:100510008047000008ED00E000000000B19C0100F1
:10052000FCFD0100C0000020D4060020750400007E
:100530000E4800470E4800470E4800470E48004747
:100540000E4800470E4800470E4800470E48004737
:100550000E4800470E4800470E4800470E48004727
:100560000E4800470E4800470E480047310500007E
:1005700089950100617F00008BAB0100A16900003B
:1005800039B40000310500003105000031050000DC
:10059000310500001D8001003D800100DD79010072
:1005A000ED850100117A0100002243088B4274D3CB
:1005B00003098B425FD3030A8B4244D3030B8B4264
:1005C00028D3030C8B420DD3FF22090212BA030C6D
:1005D0008B4202D31212090265D0030B8B4219D34E
:1005E00000E0090AC30B8B4201D3CB03C01A52416E
:1005F000830B8B4201D38B03C01A5241430B8B42B6
:1006000001D34B03C01A5241030B8B4201D30B039E
:10061000C01A5241C30A8B4201D3CB02C01A5241C5
:10062000830A8B4201D38B02C01A5241430A8B4288
:1006300001D34B02C01A5241030A8B4201D30B0271
:10064000C01A5241CDD2C3098B4201D3CB01C01A8B
:10065000524183098B4201D38B01C01A5241430995
:100660008B4201D34B01C01A524103098B4201D383
:100670000B01C01A5241C3088B4201D3CB00C01AF0
:10068000524183088B4201D38B00C01A5241430868
:100690008B4201D34B00C01A5241411A00D201468D
:1006A000524110467047FFE701B5002000F0F0F816
:1006B00002BDC0460029F7D076E7704703460B43DA
:1006C0007FD4002243088B4274D303098B425FD34B
:1006D000030A8B4244D3030B8B4228D3030C8B4277
:1006E0000DD3FF22090212BA030C8B4202D312125D
:1006F000090265D0030B8B4219D300E0090AC30B32
:100700008B4201D3CB03C01A5241830B8B4201D3DE
:100710008B03C01A5241430B8B4201D34B03C01AC7
:100720005241030B8B4201D30B03C01A5241C30A3F
:100730008B4201D3CB02C01A5241830A8B4201D3B0
:100740008B02C01A5241430A8B4201D34B02C01A9A
:100750005241030A8B4201D30B02C01A5241CDD23F
:10076000C3098B4201D3CB01C01A524183098B428A
:1007700001D38B01C01A524143098B4201D34B0173
:10078000C01A524103098B4201D30B01C01A5241D6
:10079000C3088B4201D3CB00C01A524183088B425D
:1007A00001D38B00C01A524143088B4201D34B0046
:1007B000C01A5241411A00D20146524110467047B8
:1007C0005DE0CA0F00D04942031000D340425340BD
:1007D00000229C4603098B422DD3030A8B4212D37D
:1007E000FC22890112BA030A8B420CD389019211AF
:1007F0008B4208D3890192118B4204D389013AD0EC
:10080000921100E08909C3098B4201D3CB01C01AC0
:10081000524183098B4201D38B01C01A52414309D3
:100820008B4201D34B01C01A524103098B4201D3C1
:100830000B01C01A5241C3088B4201D3CB00C01A2E
:10084000524183088B4201D38B00C01A5241D9D246
:1008500043088B4201D34B00C01A5241411A00D2C7
:100860000146634652415B10104601D34042002BC3
:1008700000D54942704763465B1000D3404201B542
:10088000002000F005F802BD0029F8D016E77047F7
:100890007047C046844608006146FFE71FB500F078
:1008A00087FC002801D40021C8421FBD10B500F00C
:1008B00013FC4042013010BD10B500F079FC002857
:1008C00001DB002010BD012010BDC04610B500F0B6
:1008D0006FFC002801DD002010BD012010BDC046C6
:1008E00010B500F01FFC002801DC002010BD012025
:1008F00010BDC04610B500F015FC002801DA00203C
:1009000010BD012010BDC046002B11D1002A0FD10F
:10091000002900D1002802D00021C943080007B4F3
:10092000024802A14018029003BDC04665FFFFFFC8
:1009300003B4684601B5029800F04CF8019B9E464E
:1009400002B00CBC7047C046F0B5CE46474680B5F5
:10095000070099463B0C9C4613041B0C1D000E001F
:1009600061460004140C000C45434B436043614353
:10097000C0182C0C20188C46834203D980235B02BC
:100980009846C444494679437243030C63442D049A
:100990002D0CC918000440198918C0BCB946B046CE
:1009A000F0BDC0469E2110B5C905041CFFF7A2FF8B
:1009B000002803D1201C00F013FF10BD9E21201C35
:1009C000C90500F05FFD00F00BFF80231B069C466D
:1009D0006044F2E7F0B557464E464546DE46E0B580
:1009E00004000D009246994683B08B4230D82DD03A
:1009F0004946504600F0C2FF29000600200000F0E2
:100A0000BDFF331A9846203B9B4633D45A46534683
:100A1000934042461F00534693401E00AF423AD8CF
:100A2000AF4200D178E05B46A41BBD41002B00DA49
:100A300075E0002200230092019301235A4693405F
:100A40000193012342469340009328E08242CFD98C
:100A500000220023009201930C9B002B01D01C600C
:100A60005D600098019903B0F0BCBB46B246A94650
:100A7000A046F0BD424620239B1A5246DA4041462A
:100A800013004A468A40170042461F43534693408C
:100A90001E00AF42C4D900220023009201934346B6
:100AA000002BD9D0FB0772081A4346467B080EE09C
:100AB000AB4201D1A2420CD8A41A9D4101202419B5
:100AC0006D410021013E24184D41002E06D0AB425D
:100AD000EED9013E24196D41002EF8D100980199FC
:100AE0005B4600196941002B24DB2B005A46444623
:100AF000D3402A00E2401C005B461500002B2ADB95
:100B000026009E40330026004746BE403200801A31
:100B10009941009001919FE7A342BCD883E74246E8
:100B2000202300219B1A0022009101920122DA4029
:100B3000019286E7424620239B1A2A0046469A40A5
:100B40002300F340444613432A00E2401C005B4666
:100B50001500002BD4DA42462F00202326009740B0
:100B60009B1ADE403B003343CDE7C046F0B5C64696
:100B700043025B0A4E0245004F00DA00C40F9C4658
:100B8000700A904600B52D0E3F0EC90FB6098C4273
:100B90004BD0EA1B002A36DD002F61D0FF2D00D19B
:100BA000ADE08023DB041E431B2A00DCD3E00120E0
:100BB0004346181A430100D48CE0800187093800AD
:100BC00000F0BEFE05388740854200DCB6E02D1AF5
:100BD000B3483840430704D00F230340042B00D010
:100BE0000430430100D478E06A1CFE2D65D08001FA
:100BF000430A9C46D2B26346D0051843E40720431B
:100C000080BCB846F0BD002A35D07A1B002D00D03C
:100C1000AFE04346002B00D1A7E0531E012A00D1CC
:100C20002FE1FF2A69D01A00AAE0E91B002970DD34
:100C3000002F37D0FF2D62D08023DB041E431B29F9
:100C400000DCB0E001204044430143D50135FF2DD5
:100C500033D00123934A0340400810401843B9E7BA
:100C6000002E00D183E0511E012A00D1D8E0FF2AD6
:100C700045D00A0098E7FE276A1C174200D086E09C
:100C8000002D00D0B7E04346002B00D1F3E0002256
:100C9000002EB0D0981B430100D4FAE043460C006C
:100CA000F01A97E7002E00D1C8E04A1E012900D1B2
:100CB000AEE0FF2923D01100C1E70023FF229C46AC
:100CC00099E7FE216A1C114277D0FF2AF5D0150062
:100CD00046447008430700D07EE7C308FF2D0ED0BE
:100CE0005B025B0A9C46EAB285E7002E07D08022B1
:100CF000D203134203D0104201D10C000300002B99
:100D0000DBD08020C00318434002430A9C46FF22E8
:100D100071E70029D5D07A1B002D60D14346002B06
:100D200024D0531E012A73D0FF2AE7D01A001B2AB1
:100D300000DC85E001203D00801985E720233A0092
:100D4000451B38000135EA405D1BA840431E984111
:100D5000002510433EE7202330009B1A31009840C5
:100D6000D140431E9841084322E70C0003001500C0
:100D7000B4E7FF2FC1D080234046DB0418438046F0
:100D80001B2A51DD01200C003D00301A12E74346BA
:100D90009F1B7B012BD4002F00D010E700230024E1
:100DA00000229C4627E7202332003000CA40591A0F
:100DB0008840431E9841104345E7002D4AD14346E1
:100DC000002B63D00022002E00D114E730004044F5
:100DD000430100D47EE7324B013518407AE7FF2FFC
:100DE0008CD080234146DB04194388469FE7434665
:100DF0000C00F71AE3E64246002A00D075E7002E01
:100E000000D07AE78023DB0300249C46FF22F2E631
:100E1000300040440125430100D45BE7022518E778
:100E200043460125981BC5E6202344464046D4404E
:100E30009A1A9040431E98412043A4E70D004DE7C5
:100E4000202341464046D1409A1A9040431E984183
:100E5000084370E74246002A00D14FE7002E00D138
:100E60004DE78022D203134200D148E7104200D060
:100E700045E7030043E7002E90D00C008446002293
:100E8000B9E643460C00F01A013593E68446002289
:100E9000B1E6002800D01DE7002300249C46AAE606
:100EA000FFFFFFFBFFFFFF7DF0B54F464646D646EE
:100EB0004502C0B547000C1C6D0A3F0EC60F002F3F
:100EC00000D170E0FF2F00D175E0EB008025ED042C
:100ED0001D43002399469A467F3F6002430A984685
:100EE00063001B0EE40F002B4ED0FF2B46D0424672
:100EF000D0008022D2040243904600227F3B310082
:100F0000FF1A4B466140C9B213430F2B00D9B5E01D
:100F10006E489B00C3589F460023984626004546CE
:100F200092465346022B00D189E0032B00D19EE06C
:100F3000012B18D03B007F33002B69DD6A0704D0FA
:100F40000F222A40042A00D004352A0103D5604B21
:100F50001D403B008033FE2B00DD70E0AD016D0ACB
:100F6000D8B202E00E0000200025C0052843F60795
:100F70003043E0BCBA46B146A846F0BD4346002B1C
:100F80003FD10222FF3F03E04346002B2DD1012237
:100F900031004B466140C9B213430F2B34D84D4842
:100FA0009B00C3589F46002D13D104239946033B51
:100FB00000279A4691E7002D05D108239946063B64
:100FC000FF279A4689E70C239946093BFF279A4653
:100FD00083E7280000F0B4FC7627431F9D400023E0
:100FE0007F4299469A463F1A77E7404600F0A8FCB0
:100FF0004246431F9A4076235B4290461B1A0022CA
:101000007DE7FF2303227AE70E00FF200025ACE7EF
:101010000120C01A1B28A6DC9E372A00BD40C24012
:101020006B1E9D4115436B0704D00F232B40042BEF
:1010300000D004356B0144D50120002595E7FF2041
:10104000002592E780250026FF20ED038DE7002391
:1010500098468020C003054209D04346034206D18A
:10106000454605436D022600FF206D0A7DE780207E
:10107000C00305436D02FF206D0A76E742466B010F
:101080005001834219D21B220025013F01261C007A
:101090006D005B00002C01DB984201D81B1A354320
:1010A000013A002AF3D15A1E93411D433B007F337E
:1010B0000E00002B00DD41E7AAE71A2201251B1ACA
:1010C000E4E7AD0100206D0A4FE7C046F4DA010005
:1010D000FFFFFFF734DB010070B5420045024E020E
:1010E0004C00C30F6D0A0120120E760A240EC90FA0
:1010F000FF2A06D0FF2C03D0A24201D1B54206D070
:1011000070BD002DFCD1FF2CFAD1002EF8D18B42FE
:1011100006D00120002AF3D12800431E9841EFE7B2
:101120000020EDE770B5420045024E024C00C30FAF
:101130006D0A120E760A240EC80FFF2A1BD0FF2C50
:101140000ED0002A1BD1002C01D1002E1CD0002D66
:101150000CD083421CD00221581E0840013870BDBB
:10116000002E22D1002AF4D1002DF2D10028F6D190
:1011700001204042F3E7002D17D1FF2CF0D0002CC6
:10118000E7D1002EE5D1E6E70020002DE7D0E2E729
:10119000A24205DCEADBB54202D8E7D30020DEE755
:1011A0004342584140000138D9E702204042D6E787
:1011B00070B5420045024E024C00C30F6D0A120E7C
:1011C000760A240EC80FFF2A0BD0FF2C0DD0002A60
:1011D0001FD1002C16D1002E14D10020002D10D0CC
:1011E00009E0002D0CD1FF2C13D1002E08D1002ACC
:1011F00008D0834212D00221581E0840013800E076
:10120000022070BD002DF4D10028FAD10120404207
:10121000F7E7002CEDD1002EEBD1ECE7A24205DC84
:10122000F2DBB54202D8EFD30020EAE7434258414F
:1012300040000138E5E7C046F0B54F464646D64681
:1012400044024500C0B5640A0F1C2D0EC60F002DC8
:1012500000D18DE0FF2D00D192E00023802099463F
:101260009A46E400C00404437F3D7802430A98464E
:101270007B001B0EFF0F002B00D170E0FF2B00D175
:1012800086E04246D00080227F3BED180023D20446
:10129000024390469C4631004B467940681C0F2B18
:1012A0001CD8764A9B00D3589F4639004446E246F4
:1012B0005346022B0FD0032B00D1D7E0012B37D19F
:1012C00000200024C0052043C9070843E0BCBA46FB
:1012D000B146A846F0BDFF200024F3E7260C240405
:1012E000220C44462404240C434627001B0C57437D
:1012F00074435A435E4312193B0C9B189C4203D91A
:1013000080225202944666443F041A043F0CD219CC
:101310009401671EBC411B0C920E9B1914439B0148
:101320001C431B0100D49BE0012362081C401443B2
:1013300002007F32002A64DD630704D00F232340BC
:10134000042B00D00434230103D502004C4B80321F
:101350001C40FE2ABFDCA401640AD0B2B2E74346B7
:10136000002B3DD14A4601331A4391469C4692E7F1
:10137000002C29D104239946033B00259A4674E7A3
:10138000002C1BD108239946063BFF259A466CE7A3
:101390004346FF35002B0BD102234A461A439146A0
:1013A0009C4678E753463100022B00D083E792E752
:1013B00003234A461A4391469C466CE70C23994600
:1013C000093BFF259A4650E7200000F0B9FA762540
:1013D000431F9C4000236D4299469A462D1A44E7CC
:1013E000404600F0ADFA4246431F9A4000232D1AB2
:1013F00090469C46763D4EE780240021FF20E40382
:1014000060E701239B1A1B2B00DD59E722009E3069
:10141000DA4084401300621E94411C43630704D0E9
:101420000F232340042B00D0043463011AD501207C
:10143000002447E78020C003044209D0434603420A
:1014400006D14446044364023900FF20640A39E7A8
:101450008020C003044364023100FF20640A31E7A6
:10146000280065E7A4010020640A2BE78020C00360
:1014700004436402FF20640A24E7C04674DB0100D1
:10148000FFFFFFF7F8B5CE46474643025B0A4E0220
:10149000DA009446720A914645004A0080B52D0E46
:1014A0001F00C40F120EC90FB609FF2A5BD001201E
:1014B00041408C4239D0A81A00285ADD002A6AD04F
:1014C000FF2D00D1D9E08022D20416431B2800DC76
:1014D000E9E001206346181A430100D4B4E080011A
:1014E0008709380000F02CFA05388740854200DC77
:1014F000CCE02D1AB5483840430704D00F230340F1
:10150000042B00D00430430100D4A0E06A1CFE2D5F
:1015100000D18DE08001470AD2B2D0053843E407FC
:101520002043C0BCB946B046F8BDA81A8046002882
:1015300045DD002A70D0FF2D00D19EE08023DB0422
:101540001E4343461B2B00DCD2E0012060444301D4
:101550007AD50135FF2D6BD001239D4A0340400809
:1015600010401843C8E7002E20D08C4223D028001A
:10157000FF38002839D0571B002D00D09DE063466E
:10158000002B00D1DBE07B1E012F00D10DE1FF2FEE
:1015900071D01F0098E0002E00D1A7E0421E012864
:1015A00000D1E6E0FF2868D010008FE7012041401D
:1015B000A14200D07FE7FF2040428046A844404639
:1015C000002838D0511B002D00D1AEE0FF2A00D1F9
:1015D000DFE080236046DB04184384461B2900DCDF
:1015E000D9E0012015008019B1E7FE206A1C1042E5
:1015F00071D1002D00D0A6E06346002B00D1D9E0C8
:101600000022002E00D188E7981B430100D4E1E0BE
:1016100063460C00F01A6FE7002E00D1B7E002001D
:10162000013A012800D19CE0FF2826D0904688E7A7
:10163000FF22002771E7FE206A1C104264D0FF2AB7
:10164000F6D0150066447008430700D056E7C3087B
:10165000FF2D12D05B025F0AEAB25EE76246002A03
:1016600000D196E0002E08D08022D203134204D08D
:101670004846104201D10C004B46002BD8D08027A1
:10168000FF031F437F02FF227F0A46E720233A0021
:10169000451B38000135EA405D1BA840431E9841B8
:1016A0000025104328E720231B1A32009E40C24029
:1016B0003000431E984110430CE7FF2ADBD0802303
:1016C0006046DB04184384461B2F56DD01200C00C6
:1016D0001500301A00E763469F1B7B013DD4002FA5
:1016E00000D0FEE600240022002716E70500AFE741
:1016F000320043464146DA4020235B1A9E403000C8
:10170000431E9841104321E7002DA7D16346002BCB
:1017100059D00022002E00D1FFE630006044430182
:1017200092D52A4B013518408EE76346002B47D0EF
:101730004B1E012915D0FF292BD019004EE70C00B4
:101740004B463D0084E76246002A8BD1002E92D1A1
:1017500080270024FF22FF03DFE663460C00F71A10
:10176000BFE6300060440125430100D46CE7022548
:10177000F2E663460125981BAEE6202364466046E8
:10178000FC40DF1BB840431E984120439FE7050003
:101790005EE74B4671E7202365466046CD40591A07
:1017A0008840431E984128431CE763460C000125EE
:1017B000F01A91E6002E95D00C004F460022ACE6C0
:1017C0004B460D0044E74F460022A6E6FFFFFFFB15
:1017D000FFFFFF7D002800D036E7002400279CE6AD
:1017E00041024200C30F490A0020120E7E2A03DD87
:1017F0009D2A02DD094A98187047802000040143A1
:10180000952A07DC9620821AD1404842002BF3D15A
:101810000800F1E7963A9140F7E7C046FFFFFF7FE7
:10182000F8B5002813D0C317C6185E40C40F3000A7
:1018300000F086F89E2305001B1A962B0FDC082863
:1018400001DD083DAE407602760AD8B202E00024FF
:1018500000200026C0053043E4072043F8BD992B43
:101860000CDD05223100121AD1400A0001003000BF
:101870001B318840411E884102431600052D12DCB1
:1018800031000D4F3940720709D00F203040042835
:1018900005D004314A0102D59F2339405B1B8901E1
:1018A0004E0AD8B2D6E76A1F96403100024F39403F
:1018B0007207F4D0E9E7C046FFFFFFFB70B5051ED5
:1018C0000ED000F03DF89E2304001B1A962B0CDC72
:1018D000082801DD083CA5406D026D0AD8B201E080
:1018E00000200025C005284370BD992B09DD0200AA
:1018F00029001B3291404A1E91410522121AD540FF
:101900000D43052C12DC29000C4E31406A0709D02A
:101910000F202840042805D004314A0102D59F2316
:1019200031401B1B89014D0AD8B2DBE7621F95408D
:101930002900024E31406A07F4D0E9E7FFFFFFFBC0
:101940001C2101231B04984201D3000C10391B0AEF
:10195000984201D3000A08391B09984201D30009B3
:10196000043902A2105C40187047C046040302020A
:1019700001010101000000000000000010B5002975
:1019800003D1FFF7DDFF203002E00800FFF7D8FFAA
:1019900010BDC046002803D00A49086000207047E7
:1019A0000120704710B5074C20680021064A00232B
:1019B000FEF7CAFF0422D2430023FEF7A5FF2260F0
:1019C000104610BDC0000020C160A81010B5020074
:1019D00000210020C04300E0491CA24B1B78994223
:1019E00009D2A14BB42464004C431B191C688442E7
:1019F000F2D11A60080010BD0021C9439A4AB423ED
:101A00005B0058431150704780B50021202000F042
:101A100001F801BD38B505000C000FF0EFFA92484F
:101A2000B42149004C430019016C0D4305640FF0CB
:101A3000BFFA2021B64800680FF018FA31BDFEB594
:101A4000894F0026B24C01A800900023DB430022FE
:101A5000190A20680FF05AFA002538E08169002938
:101A600010D018301AF009FB616801F0F1F809E0B4
:101A7000816B002906D1C16B0029EFD08163C66359
:101A800002F0B8FF6068C168002908D1816B0029A5
:101A900009D18169002902D1C06B002803D0290037
:101AA0000120FFF7B7FF6068816B002905D1542141
:101AB000415A002901D000F094FF0198800702D517
:101AC000606803F0B1F8606800F0E5F96D1C6548E6
:101AD0000078854227D2B4204000684338186060FF
:101AE0000FF08CFA6068016C019106640FF060FAE7
:101AF00001980028EAD0606800F0E7F901988006B4
:101B000003D509F009F909F03FF90198C007CAD5D2
:101B10006068C1680029ABD00C301AF0AEFA616879
:101B200001F036F8AEE7B948007800288BD1F7BD50
:101B3000F8B501200FF062F975490860002804D15A
:101B400000230022002119F0FDFF0025FF26B04FE1
:101B50003BE04548B421490069434418A0225200A3
:101B6000002120001AF0BAFDA5600020C0432060CB
:101B7000280018F074FD60602763A6486063FF20AA
:101B80003C302018067046706268A349A34807F0ED
:101B9000C7FE002120000C301AF072FB002120004B
:101BA00018301AF06DFB0021200024301AF068FB79
:101BB000200000F08AF9200000F0A0F9B14808F0F8
:101BC00007FF200000F067F96D1C26480078854269
:101BD000BFD3F1BD10B5244BB424640062439A18FE
:101BE0001063516310BD10B50C0001001E48B422F3
:101BF0005200624380180C301AF019FA21000120BB
:101C0000FFF708FF002010BD80B5FFF7ECFF02BD15
:101C1000F8B50D000024134909788D4201D3E8245A
:101C20001DE01149B42252006A438E18AE4909786A
:101C3000002904D0328C8A4201D3F1240FE007003E
:101C4000EBB200223900012018F081FD390030008C
:101C500018301AF0ECF929000120FFF7DBFE200014
:101C6000F2BD00008FFD010044090020F8B50E0010
:101C70009E4909788E4201D3E820F2BD0700F3B2F5
:101C800000223900022018F062FD9948B421490071
:101C9000714345182900380000F03CF8040010D1C9
:101CA00038780E2804D0152813D01C281FD024E023
:101CB0000F2038703A0008320121280000F026FB7E
:101CC0000400F3B222003900022018F040FD200089
:101CD000F2BD16203870280000F0F7F8397A280095
:101CE00004F0F9FC0400280000F0D5F8E9E71D2015
:101CF00038703A0008320021DFE739002800183038
:101D00001AF095F931000120FFF784FE0020F2BDA2
:101D1000C4000020F8B504000A00002100201B25A3
:101D20002678B61F15D0B61E1DD0B61E21D0361F80
:101D300018D0B61F24D0761E28D0B61E2CD0B61EC2
:101D40002FD0F61E4CD0B61E51D0361F012E55D9BD
:101D500020E0092511002000083001F0ADFF01004E
:101D600000D02570F2BD11002000083002F046F9C5
:101D7000F5E70C2511002000083002F0F5FFEEE732
:101D800011002000083004F03FFCE8E71625217A16
:101D90000229E7DBE820E4E71825217A0229E1DBC4
:101DA000F8E71A25267A052E0ADA022E02DC267CAE
:101DB0000F2E05DAE6684F4F374001D1002E01D1D2
:101DC000E82007E0926B002ACCD01278113A052A5D
:101DD000C8D2FC202072227A6272E1722161C0E7CF
:101DE0001D2521000831100000F00EFAB7E71F256D
:101DF00011002000083001F083FEB0E72425110017
:101E00002000083001F08EF9A9E7000091FD0100E3
:101E1000891E00008D1E0000091C0000E71B000049
:101E200070B50020002431490978B4225200304BAB
:101E300000E0641C8C4207D2250055435D19AD6B50
:101E4000002DF6D0012070BD0024C62600E0641CE1
:101E50008C4208D2250055435D19AD5D002DF6D0AA
:101E6000022070BD401C88420AD2040054431C1951
:101E7000E568002D02D1A469002CF3D0032070BDC9
:101E8000002070BD091A000080B500E080B511F097
:101E900063FD002002BD816B002900D0704780B532
:101EA000C168002910D1806900280DD10FF0A6F873
:101EB00011480178002903D0491E0170090601D19B
:101EC00012F096F80FF074F801BD80B50FF096F897
:101ED00009480178491C0170C9B2012901D112F0E9
:101EE0009DF80FF065F801BDC70600208FFD0100C9
:101EF00044090020FF0700F8F4060020F1B584B083
:101F000008200090B0220021049860301AF0E6FB0F
:101F1000049C6834BB48E0812082A0810498BA30D8
:101F200001900F2001990870019988730499543128
:101F300003914873202060820521019A11710321C9
:101F4000019BD971019A91712821019A11720C217A
:101F5000019A51720199C8720620207704200199D4
:101F600048710120A0760199C870FA204000A08233
:101F70003620E082049800F00CFDA060684619F05D
:101F8000CBFD0098019988700098000A019948706B
:101F900095A003C803C404988568954E95480078B9
:101FA000002857D09448007842010021684340013E
:101FB00030181AF093FB9048007890490B781A007B
:101FC00042430A214A4300218D4C6B4343430A207C
:101FD0004343E0181AF082FB87480078BB490B782E
:101FE000190041434A0052180021B94C6B43434346
:101FF0005800C01820181AF071FB7F480078B549C6
:102000000B78190041434A000021B34C6B43434312
:10201000580020181AF062FBB0480078C200002176
:10202000AF4B6843C00018181AF058FBAD48007851
:1020300002010021AC4B6843000118181AF04EFB56
:10204000AA48007882000021A94B68438000181834
:102050001AF044FB049CEC346748007801006943A3
:10206000490171182160207500200090FF220DE0C9
:102070002168009E76018919496846008A55401CEE
:1020800019788842F4D30098401C00905A490F7880
:102090000098B8424ED240010290584803781E0082
:1020A00057488446280070437843009F7743C619F9
:1020B0000A204643604680192668029FF051206836
:1020C000029E801943730098400102907F48037874
:1020D00018007F4EB4462E0046430F787E43009F83
:1020E0004743F01946003018664630182668029FAC
:1020F000F619B0602068029E8019037300984001B1
:102100000290744B1E783700734884462800784349
:1021100009784843009979434018410060464018C7
:102120002168029FC9194860206802994018867387
:102130000020A5E769480078694902006A43D20097
:1021400089186160607567480178674A0B006B43C6
:102150001B01D218A260A1750021002204E0A3682F
:1021600016019B191973521C03789A42F7D3002663
:102170000022FF20594904E06368D700DB19587139
:10218000521C0B789A42F7D3584F387858490200BE
:102190005543AA008918E160E07501990E7608227E
:1021A000FF210498CA301AF099FAFF200199887625
:1021B000009606E0E168009A920088540099491C54
:1021C000009100993A789142F4D30822FF210498B3
:1021D000E2301AF083FA0B4803990880049800F063
:1021E00000FC05B0F0BD0000FFFFFFFFFFFFFFFF99
:1021F000AC0A002090FD0100C8060020C90600209E
:10220000EC0A0020FFFF000070B54A681278002336
:102210000024097838A5A6B2AE5DB14229D0641C6D
:10222000A6B2122EF7D3334C9DB26E007519641905
:102230002578A9421FD05B1C9CB2202CF3D303004D
:10224000BA33EC304E2912D04F291CD054291CD05F
:1022500088292ED096291CD097292AD098291AD0BF
:1022600099291AD09A2928D09B291CD009E0062A3E
:1022700021E0FB2070BD6078824225DBA07890428F
:1022800022DB002070BD187900E018789042F8DA5F
:102290001AE0007D0EE0C07D0CE00168007E400188
:1022A0000818407B06E00168007E40010818007BAA
:1022B00000E0407D8242E4DB06E00168007E4001F0
:1022C0000818807B8242DCDBE82070BDCA06002053
:1022D000140B0020CB060020200B0020CD06002090
:1022E000280B0020CC06002098070020CE060020F6
:1022F000380B0020B4DB010040485E5F545B717214
:10230000737475767F80818283840000F2B586B015
:1023100004000025107800905068039000988F28E2
:1023200003D0912801D0902857D12000EC30407E76
:10233000C00002902000EC304068401D0299405CD3
:10234000FF2811D12000583000F005FCFF281DD0D7
:102350002100EC318A680C3203010126D654496809
:10236000491D029A885438E06946097E002934D113
:102370002600EC360701B0680C30C05D01282CDD6A
:102380002000583000F0E7FBFF2801D1F9207CE263
:10239000010101910121B2680C32019BD154716895
:1023A000491D029A8854B0680C30C0190178491E42
:1023B0000170B268D01903C8019BD21803C2B0687B
:1023C00001000A31C95B0A30019A8152B0680100EC
:1023D0000831C95B0830019A81520098C0B200F000
:1023E00059FA2200B9322100EC31009B203B7B2BB3
:1023F00000D9C6E101A65B00F65AB7441201F60007
:10240000840384031A012001840384038403840366
:102410008403840384038403840326012C0184033E
:102420008403840384038403840384038403840374
:1024300084038403840384038403840334014001FC
:1024400046014C01520158016001640184036A0194
:10245000700176017C0182018E01A001B201BA01F6
:10246000C801D601DE01F0013A01880194019A0108
:10247000C201E401EA01D001A601AC018403840396
:102480008403840384038403840384038403840314
:102490008403840384038403840384038403F60194
:1024A000FA01020206020C02100216021C022202AB
:1024B00028022E0234023A024002460250025C0216
:1024C000680274027E028A029602A602BA02CC0256
:1024D000DE02F402FC0204030C0318032A03300397
:1024E00034033C034203520366036A03700374031C
:1024F0007E037A0323006133022502006846007ED2
:10250000012800D03FE1190003981AF07FF85CE140
:10251000230060330125F0E723006233EDE7230059
:102520006333EAE723006433E7E7230058332025C9
:10253000E3E723007E33E0E723008033DDE7230079
:102540008133DAE723008233D7E723008333D4E7EC
:1025500023008433D1E7230085331078CDE71300BF
:10256000CBE72300BA33C8E72300BB33C5E723001A
:102570006833C2E723007433BFE72300BC33BCE7F2
:102580002300BD33B9E72300BE33B6E72300BF33D2
:10259000B3E723007033B0E72300C033ADE7230077
:1025A000C133AAE72300C233A7E72300C333A4E75C
:1025B000230076330825A0E72300C43304259CE7D5
:1025C0002300C53399E72300C633402595E7230050
:1025D000C73392E72300783310258EE72300C833F2
:1025E0008BE723007A3388E72300C93385E723008C
:1025F0007C3382E70B6880E78021490063187CE721
:102600004B687AE7FF21891CF8E7CB6875E7FF2163
:10261000091DF3E72300FC336FE72300D2336CE797
:102620002300D33369E72300CA3366E72300D4339A
:1026300063E72300E23360E72300D8335DE723003C
:10264000E0335AE70A68097E4901535855E70A689A
:10265000097E490153180D334FE70A68097E490185
:1026600051188B6849E70A680C32097E49015318F2
:1026700043E70A68097E49015118C1E70A68097EE3
:10268000490153180E3338E70A68097E4901531887
:102690000F3332E70A680B7E5B01D2185268497F1C
:1026A0004900E4E70A680B7E5B01D2185268497F53
:1026B000490051184B1C20E70A680B7E5B01D218B9
:1026C0009268097F4B005918D1E70A680B7E5B01BD
:1026D000D2189268097F4B005918EAE70A680B7E06
:1026E0005B01D2189268097F4B00591851188B1C56
:1026F00003E7CA68897E8900B9E7CA68897E8900CC
:10270000D7E7CA68897E8900F0E7CA68897E8900B0
:102710005118CB1CF1E68A6808324B685B1D497E74
:10272000C900595C0901A2E78A680A32F5E78A689C
:10273000F3E74A68497EC90099E74A68121DF9E73C
:102740000A680B7E5B01D258C97E0A2359438EE783
:102750000A680B7E5B01D258C97E0A23594353187D
:102760000933CAE6822148E7FF21891D46E7832114
:1027700043E7FF21083141E784213EE7FF210A3189
:102780003CE7F42081E00399180019F03FFF200096
:10279000FFF79BFB26005436280008D05420205A0F
:1027A00005433580A1680120FFF734F90AE000985D
:1027B0004F2803D0572801D04E2803D1200000F025
:1027C000E8F8F0612000FFF766FB00988F2803D03F
:1027D000902801D0912857D12000EC30407EC100D4
:1027E00003912100EC314968491D039A8D5C002159
:1027F00001910026290100910590049400E0761CC7
:102800002348007886423FD2F00002900499EC31D0
:102810004868401D029A805CFF28F0D0059A9642D5
:10282000EDD0A842EBD08C680701009820180CC8A6
:10283000E01903C88B42E2D18242E0D12000083087
:102840000099405A21000831C95B8842D7D1200045
:102850000A300099405A21000A31C95B8842CED122
:102860000498EC30019922000C32009BD15481680D
:102870000C31C9190A78521C0A704068411D029A2D
:10288000895C401D039A8154002007B0F0BD000010
:10289000CD060020010000202039012977D9091F29
:1028A000012974D90B3972D0491E6AD0103966D00B
:1028B000491E03296BD9091F5DD0491E012966D91C
:1028C000C91E64D0491E5CD0491E58D0491E032938
:1028D0005DD9091F53D0491E012958D9891E4ED0F0
:1028E000491E54D0491E4AD0491E01294FD9891E7C
:1028F00049D0491E01294AD9891E40D0491E0329C1
:1029000045D915393FD0491E41D0491E3BD0491EFB
:102910003DD0491E37D0491E39D0491E33D0491EFB
:10292000012934D9891E2CD0491E30D0491E0129D5
:1029300027D9891E23D0491E25D0491E27D0491EDC
:1029400021D0491E23D0491E1DD0491E1FD0491E2B
:1029500013D0491E08291AD9093901290FD9891E0E
:102960000FD0491E0FD0491E11D0491E0DD0491E4F
:1029700006290CD970473420704710207047022078
:1029800070470820704704207047092070470120D5
:102990007047F8B50300BE331978DA788A1A002533
:1029A00000215B78934200D21A00012407E0060060
:1029B000BE36F7787E190127B740C9196D1C9542BC
:1029C000F5D3BE25455DAC40641E9A1A54430C19DC
:1029D00081680120FFF71EF814204443F6302018C8
:1029E000F2BDF8B588B004006D460C2028700126B1
:1029F00000275420205A400830420DD02F7220006A
:102A00005830407A00216A46103203C2A0686870CC
:102A10006168684607F01EF95420205A304213D0EE
:102A20000620287220005830007A022801D10120A7
:102A300000E0002000216A46103203C2A0686870DE
:102A40006168684607F006F95420205A8008304231
:102A50000DD008202872C420205C00216A46103264
:102A600003C2A06868706168684607F0F3F85420F4
:102A7000205A000930420ED004202872200058301D
:102A8000008C00216A46103203C2A0686870616839
:102A9000684607F0DFF85420205A400930420CD035
:102AA00003202872A06DE16D6A46103203C2A0684F
:102AB00068706168684607F0CDF85420205AC00855
:102AC00030420ED00520287220005830C08B0021E3
:102AD0006A46103203C2A06868706168684607F0F1
:102AE000B9F85420205A800930420ED00D202872A7
:102AF0002000C430807800216A46103203C2A068EA
:102B000068706168684607F0A5F85420275209B03C
:102B1000F0BD10B5194AB4235B005943541808227C
:102B200001002000583019F071FD5420205A202156
:102B3000014354202152A1680120FEF76BFF10BD14
:102B400010B508220D4BB424640061435918583164
:102B500019F05CFD10BD0100002000E0401C084A97
:102B60001278904208D29C228A580301D218127B14
:102B7000002AF3D1C0B27047FF20704744090020FB
:102B8000CC06002080B581680220FEF743FF01BD1E
:102B900070B504005BD00D002078C421695C002969
:102BA00026D0022824D1607C04284DDD80284BD219
:102BB0007246B2480178B62010F072FE060043D08B
:102BC00005203070207C30722000083003C80002DD
:102BD000000AF060607C3074300018307061627CF4
:102BE000616919F013FD296830002A6B90472BE0CA
:102BF000401E21D0401E0BD0401F1DD0801E1BD078
:102C0000801E19D0801E17D0801E012814D91BE009
:102C10008820400029182000083002F0A1FD00287B
:102C200005D1AA6B002A0FD01020207007E02900E0
:102C3000200001F06BFA70BDAA6B002A04D02900B5
:102C40002000526890470400200010F085FE70BDFF
:102C5000F8B58AB0040000D10EE104260D002078FA
:102C6000002822D0C01E30D0C01E13D0801E24D019
:102C7000801E13D00A3800D1F4E0C01E00D1DDE080
:102C8000801E5CD0401F00D1E4E0001F012800D866
:102C9000E4E0EEE0200001F037F8E9E0207D0128D3
:102CA0000BD0200002F0A5F8E2E06020285C0028AC
:102CB00007D02A20205C304203D0200000F01AF90F
:102CC000D6E0200000F0DEF8D2E0207A69460870F5
:102CD000684601782800243003F0BDFD070023D0AA
:102CE000A86B874220D0380019F00FFAB98A280063
:102CF000243003F07EFD002809D102A8B97D0172BD
:102D000005210170A9684170696806F04BFFF868F9
:102D100010F022FE0020F860B86810F01DFE3800A8
:102D200010F01AFE002000E0E7206072684600788C
:102D300020722670296820002A6B904798E0677CF3
:102D4000207A00901221002003F095FDA863060070
:102D50001A202070002E62D0A86817F043FC484863
:102D60007060F460207C3082009803280DD1A07C34
:102D70003077E07C70772020205CB077082221003B
:102D800018313000143019F041FCE068E060009820
:102D90006072A772EA2020720021E1722161012095
:102DA000009A042A01D1617204E0328A012393401F
:102DB0005B1C338202AA0C2313700D231372009B39
:102DC000002B02D0009B042B00D1002002AB10335B
:102DD00003C3A8685070696802A806F03BFF00981A
:102DE000002812D0022808D007D3042812D03FD2DE
:102DF0002900200000F015FC3AE07620285AB08225
:102E00002900200000F0E0FB32E02900200000F063
:102E10009FFB2DE02900200000F081FB28E0E06806
:102E2000E06000986072A772FA2020720020E072C1
:102E30002061296820006A6B904719E0200000F0AB
:102E4000B9FA1820207000262672296820006A6BC3
:102E500090470DE0200000F0B3FE09E0200000F0F4
:102E600080F905E0A07C012803D1200003F0E8FBF5
:102E70000024200010F070FD0BB0F0BD8EFD0100AD
:102E800091340000F8B507000C00083001F080FC18
:102E9000050016D10621380003F0EDFCA0632200E6
:102EA000390001F0B0FC05000026002D14D0A06B05
:102EB000002806D0806810F04FFDA06B10F04CFD8C
:102EC000A663012038702920385C38727D72216831
:102ED0003800226B9047F1BD2920385CA16BC87582
:102EE000A06BC06810F038FDA06BC660200001F038
:102EF0000EFFF1BDF8B590B006000D0000240027CC
:102F00002800243019F0BCFA8449097888426AD034
:102F10003078002806D129003000083001F038FC54
:102F2000070018D1307800284AD0082802D00A2893
:102F300037D058E00221300003F09DFC040052D04D
:102F4000143001907620285A0090300008300CC8C8
:102F5000032003F09BFC380073D0982040002C180D
:102F600008302818317800295CD0082902D00A29B5
:102F70003BD062E0B17C017000290AD0F17C417045
:102F80002021715C8170082231001831200019F075
:102F90003DFB029503200190280058300090032348
:102FA00039E00721300003F066FC04001BD0143028
:102FB0000190308A0090300008300CC8B07CC8E71F
:102FC0000621300003F057FC04000CD02920305CAF
:102FD000E075200014300190708B0090300020309C
:102FE0000CC8707EB5E7F127B7E7717D0170002945
:102FF0000AD0B17D41702021715C817008223100BE
:103000001831200019F002FB0295032001902800DE
:1030100058300090B37C320008322100380001F0B3
:10302000B8FA0AE0012030702920305C30727772E3
:10303000296830002A6B90470026300010F08CFC85
:1030400069E0A18A2800243003F0E0FB070021009A
:103050002800243018F0EBFF7C20295A0191012030
:103060000090BA20285C0F21FDF70EFC012088405B
:1030700001994843F021890048432061002F04D181
:10308000280003F019FCA0750BE0B87DA07530781E
:10309000002806D1F8682A21415C40220A432A21EF
:1030A000425408A8A17D0172A18A418103210170C7
:1030B000A9684170696806F075FD286D002814D173
:1030C00007F0CEFC02000B00206900218018594156
:1030D000A864E96422692A65114A0692079504AA40
:1030E00003C204A807F0FCFC15E021690818206160
:1030F00007F0B6FC04AA03C2AA6CEB6C04A803C8D0
:10310000994208D801D3904205D22069821A04A8B6
:1031100003C81018206111B0F0BD0000ED4D002073
:10312000852B00000278022A01D0032A13D16422E1
:10313000895C002911D1017C08290CDA4288994B5D
:103140009A4208D000290AD0417C042903DA2021C0
:10315000405C002803D1E820704700210174002062
:10316000704738B588B005000C002878222801D1B6
:103170000C2100E00D21280003F07DFBA06322005C
:103180002900A06B01F03FFB0500A06817F02AFAA8
:10319000280013D16A460C2010700E201072206F88
:1031A00000216B46103303C3A06850706168684605
:1031B00006F050FD200001F0AAFD04E022002900E5
:1031C000002000F07DF809B030BD1FB514000800E4
:1031D00003D0002000F074F81FBD734802900394E0
:1031E00007F03EFC226F0023801859416A4603C253
:1031F000684607F075FC9E21490060546B48A16B3E
:1032000048601FBDFEB504000E00EB2500270197A6
:10321000207802282CD18C20400030188089694603
:103220000880684600884007400F01281ED18C2086
:1032300040003018017C002904D19C214900715CB8
:10324000002915D003C8574AB94201D1904216D07F
:103250000022D243914201D1904210D0002568460D
:1032600000880006000FC707FF0F01E0019400244B
:1032700032002900380000F023F8002D03D131007E
:10328000200001F02DF9002F15D00C20B16B087033
:103290002220B16BC9680870B06B3200C16801F0C0
:1032A000B2FA010003D1300001F031FD03E0320039
:1032B000002000F005F8200010F04EFB0198FEBD44
:1032C000F8B588B005000F00140028000FD16A4639
:1032D0000C2010700E201072002000216B4610335D
:1032E00003C3A06850706168684606F0B3FC9E2076
:1032F00040002618307807F067FCFF203070A16B83
:10330000002608780D2812D1280006D072462848D9
:103310000178382010F0C4FA01E0C868CE600028B7
:1033200005D02421017007722168626B9047002D3F
:1033300010D1A06BC06810F00FFBA06B002806D066
:10334000806810F009FBA06B10F006FBA663A06874
:1033500017F051F909B0F0BD38B584B004007246D9
:1033600013480178022010F09BFA9E21490065184D
:10337000002807D0FF21297010210170A168FEF7F5
:1033800043FC0DE008480290039407F069FB00221B
:10339000643051416A4603C2684607F0A1FB2870B9
:1033A00005B030BDFFFF00005933000005320000BA
:1033B0008EFD010070B58CB00D00C621695C00293E
:1033C00023D1060004AC0C2020700D20207230693F
:1033D000002811D02C480290039507F041FB326978
:1033E0001202120A002312184B4168460CC06846AC
:1033F00007F076FB0120002104AA103203C2A8685E
:103400006070696804A806F025FC0CB070BD38B582
:1034100088B06C46002A0ED0122525726D461035F4
:1034200003C50692BA20185C0F2801DA0C2000E0D0
:103430000D20607201E0032020720A20207098683D
:1034400060705968684606F005FC09B030BD38B5B3
:10345000040072460D480178382010F021FA05006A
:103460005420205A40210143542021522000FFF7CC
:10347000B8FA002D07D018202870D02028722168B3
:103480002800626B904731BD4F3400008EFD010073
:1034900038B505000C002878012838D0022807D05C
:1034A000072826D0092803D0102833D107202BE085
:1034B000A06B0078112807D016D313280CD007D39F
:1034C00015280DD008D30FE0280000F0E9F80EE031
:1034D000280000F010F90AE0280000F036F906E0B4
:1034E000280000F0D1F902E0280010F035FA00259C
:1034F00010E0200001F0EEFB012803D1200000F0D5
:10350000DAFA07E02100002000F0A3F802E0200032
:1035100000F0B0F8280010F01FFA002032BD38B5D6
:103520000D00AC6B11202070208A02F0F5FAE168E2
:103530000861E0680069002809D0724656480178A1
:10354000202010F0ADF9A060002800D031E029E083
:1035500038B50D00AC6BE068C06841084F4A0A40BE
:10356000801AC3490A000240800801405018122105
:10357000217001094018BF490140BF484143080E6E
:1035800002F0CAFAE1680861E0680069002809D021
:10359000724641480178202010F082F9A06000288E
:1035A00000D006E0FA20E1680872280000F019FA5D
:1035B00031BD082101700022D243134608300CC0EF
:1035C000280000F0AEF931BD38B50C00A56BE868F5
:1035D000407A012801D1132000E014202870A74868
:1035E000762160525420205A082101435420215250
:1035F0002000FFF7F6F97246A1480178A02010F0EC
:103600004FF9E9680861E9680869002805D0A02237
:10361000002119F063F82000D3E7FA200872200097
:10362000C4E710B50C00A06BC521615C01821521B7
:1036300001709248762160525420205A082101439B
:10364000542021522000FFF7CCF9200000F069F946
:1036500010BD38B502000800816B072A06D1CA6880
:10366000D36801248D7CAC40A343D3608A7C521C78
:103670008A74A6E71FB5040082480290039407F0FD
:10368000EFF9A26B138AF02292005A43D317121853
:103690004B4168460CC0FFE18EFD01005555555564
:1036A00038B50C00A56BEA688178072907D1D17A73
:1036B0004B1CD372C278EB681B695A5404E0E121B9
:1036C0001172298AEA68D17210F046F9E868C17A65
:1036D0002A8A914207D2A068A96848706168A868E0
:1036E00006F0B8FA31BDC1680122AB7C9A40914323
:1036F000C16020005AE770B50C00A56B81780729DE
:103700000DD1E9680A69C97A5118C278EB681B695A
:10371000EE68F67A9B5D9A4200D21A000A7010F0A9
:103720001BF9287D002807D1A068A9684870616846
:10373000A86806F08FFA70BDE868C17A491CC172AA
:1037400021000720FFF785FF70BDF2B58CB00400A3
:10375000886B02901F22002104A816F05DFB002652
:103760000C9892214900405C40077CD10298C068C7
:103770000830009000990E700C9A04A9200000F007
:10378000D5FD002872D1200010F0E6F80C988221B7
:10379000405C01286AD10098856804A8807A0228D4
:1037A00002D10024039025E00820FAE7E0B20528C2
:1037B00001DB3D680024E0B24101081A0190019844
:1037C0002F18039A390004A818F05FFF00280FD0C3
:1037D00004A8817A2A000A32019BD25C914207D167
:1037E000397A7A7A1206120C1143008988423DD048
:1037F000641C761C2F009C370099C978F0B288426F
:10380000D4D32800009C9B21415C05290DDB724626
:10381000B8480178A02010F043F800281BD0002100
:103820009B23C1549C228150386005009B352B7826
:10383000052B1BDA1F2204A95E01F31AC01818F029
:10384000E5FE2878401C2870E078401CE070C0B28B
:103850000A280BDB03E0FA200299C96808720C9869
:1038600000F0BFF802E0200010F076F80DB0F0BDD7
:10387000333333330F0F0F0F01010101FFFF00003E
:103880008EFD01004F3A000070B505000C00A06BE2
:10389000C66808369220400021186869CA788018E6
:1038A00009784907490F032937D10178082934D10C
:1038B000427881780906090C0A43210074314A8054
:1038C0008279C3791B061B0C1A438A8042796123D3
:1038D000E254C27803791B061B0C1A430A800822A3
:1038E0008820400021182000683018F08FFE5420F6
:1038F000205A1A210143542021522000FFF771F869
:1039000070680121A26B927C9140491E0140716058
:1039100000203070200000F064F8280010F01CF83F
:1039200070BDF8B58AB0846B00270097012506E0CA
:10393000E268D268CA402A4005D1491CA174A17C22
:103940001B29F5DB43E0060002AA0C201070177259
:10395000A07C002102AB103303C3B06850707168C3
:1039600002A806F077F92078112807D037D313285A
:103970001ED003D315281BD016D330E0122803D154
:1039800027753000FFF776FEA2680820107000202F
:10399000C04301461300083303C3B0685070716818
:1039A000A06806F057F91AE03000FFF763FE16E052
:1039B000152802D120001430009032000099200018
:1039C00000F021FF010005D0E1680872300000F02E
:1039D00008F804E0A0688575300000F06CF80BB0C2
:1039E000F0BD70B50400A66B543000253178113954
:1039F000012910D9891E01290FD8F168CA7A0A2A2B
:103A000001DBFA220A72B18A41845421615A0822E8
:103A10000A43028001E0F26815725421615A422281
:103A20000A4302802000FEF7DCFFA06816F0E3FDE9
:103A30002168F068626B9047A06B002806D0806810
:103A40000FF08AFFA06B0FF087FFA56370BD1FB555
:103A50000400A06B0178123903D0491E022903D952
:103A60001FBD012101751FBD724622480178022049
:103A70000FF016FF002805D010210170A168FEF795
:103A8000C3F81FBD1C480290039406F0E9FF002212
:103A9000643051416A4603C2684607F021F81FBDF1
:103AA00080B58168826B926851704168806B8068D4
:103AB00006F078F801BDDFB5040001F0FBF8060060
:103AC00006F0CEFF002E09D1A068A16B896848706E
:103AD0006168A06B806806F065F8DFBD074A029256
:103AE0000394002736184F416846C0C0684606F068
:103AF000F7FFDFBD8EFD01004F3A0000A13A000044
:103B000070B50400A07A02284FDAE07A02284CDA75
:103B1000207B022849DA207A102846DA627A90421D
:103B200043D30D007820285A2449884201D1EC2043
:103B300070BD6420285C002839D1607E082834DA02
:103B4000617B082931DA002806D0A27E032A2CDC0A
:103B50002822A25C002A28D0002905D0A17B0329B5
:103B600023DC217E002920D0002817D09C21490089
:103B700069180870A07E48702820205C8870982002
:103B800040002E18082221002031300018F03EFDA0
:103B90003100280002F0CDF801000DD1E0780028B6
:103BA00003D1A0780B38102805D3E82070BD002081
:103BB00060766073E070002070BD0000FFFF0000C1
:103BC00038B505000C00287D012813D104212800F8
:103BD00002F051FEA0632200290000F014FE010053
:103BE00003D1200001F093F831BD2200280000F03D
:103BF0003AF831BD280000F006F822000021280024
:103C000000F045F831BD38B502000800BA31137C28
:103C10000B70137C0F2B01D18B7304E0537C8B73DF
:103C2000D37C8324035501230B73010054315424A6
:103C3000045B402525430D80947C012C0BD1947AA4
:103C40004C7312894A8402220A735422825A0A242B
:103C500014430C8000E00B735422825A13430B80F0
:103C6000FEF7BFFE31BD70B505000C001600200048
:103C700003D131002800FFF7C6FFBA20305C0F28BF
:103C800004D132002100280000F001F870BD10B509
:103C900014001F22027001722168626B9047A06BB2
:103CA000002807D080680FF057FEA06B0FF054FE7D
:103CB0000020A06310BD000030B5020000240020E9
:103CC000957A022D01D0032D19D160254D5D002D6F
:103CD00015D16425495D002913D1117B08290EDA1D
:103CE000002905D0517B042909DA117E002906D06C
:103CF000917E002903D1D17A0B39102903D3E82012
:103D000030BD1473947630BD38B504000D00002129
:103D100002F0B1FDA8632A00210000F074FD01004B
:103D200004D02A00200000F00BF931BD2A006832CF
:103D3000208AD081E07C612168542000083003C8CB
:103D4000A37C022B01D1030002E0A84B03C2083A76
:103D500093815420285A0A210143542029522800D3
:103D6000FEF73FFE280000F0D2FF31BD38B588B025
:103D70000400A56B002D14D06A460C2010700E2094
:103D80001072206F00216B46103303C3A06850707F
:103D90006168684605F05EFF01202870200000F091
:103DA00029FE09B030BDF8B58AB007000E00140036
:103DB00002AA0C2010700E2010720020002102AB0D
:103DC000103303C3A0685070616802A805F042FF79
:103DD000A06B310030D081680091002500291DD0F2
:103DE000856000988672824800990881387D009924
:103DF000C872787D009908732020385C0099087695
:103E00000822390018310098103018F0FFFB092003
:103E10000099087021680098626B904738000FF095
:103E20009BFDA06B002809D080680FF095FDA06B6A
:103E30000FF092FDA56301E06E4941600BB0F0BD4B
:103E4000F8B584B006000C0000250395A06BC0688F
:103E500000900195EB200290922149006118327880
:103E6000022A0DD17269CB78D21801920A785207D2
:103E7000520F032A04D1019A1278022A00D1029526
:103E80000922009B1A70009A9072594F009807817E
:103E9000087D009AD072487D009A1073887D009941
:103EA000087608229820400021180098103018F059
:103EB000ADFB0298002831D10198C1780098817239
:103EC00020008030002921D10121017002220198B7
:103ED000411C0098083018F099FB02220198411CFF
:103EE0002000783018F092FB5420205A1021014312
:103EF000542021522000FEF774FD08228820400043
:103F000021182000683018F081FB03E005702000C4
:103F10005430478430000FF01FFD00E00396A06B83
:103F2000002806D080680FF017FDA06B0FF014FD7D
:103F3000A56321680098626B9047039805B0F0BDB7
:103F4000F8B584B0060008001400010008D1A06B89
:103F500080688369020017323100200001F036F8D2
:103F600001002AD0A16B8F680025002F17D08D602B
:103F700009213970B8721E483881307DF872707D21
:103F800038732020305C3876082231001831380030
:103F9000103018F03BFB21683800626B904730000E
:103FA0000FF0DAFCA06B00281DD080680FF0D4FC65
:103FB000A06B0FF0D1FCA56315E00F4802900394AD
:103FC000C520205CF02189004843C1176A4603C21E
:103FD00006F046FD6A460CCA801859416A4603C27B
:103FE000684606F07DFD05B0F0BD0000FEFF000054
:103FF000FFFF0000413E00006D3D0000427E022AAE
:1040000003D0012A01D0002A0ED16022895C002948
:104010000AD0817A082907DA002907D0C17A042951
:1040200002DA007E002801D1E820704700207047A6
:10403000FEB505000E001400A97C9C20400020184D
:10404000017098225200A71800290AD0E97C41701B
:104050002021695C8170082229001831380018F08D
:10406000D5FA3000029403210191210058310091CA
:1040700003232A000832390000F08BFAF7BD000054
:10408000FEB50D0000260027922149006C182188FA
:10409000C908C9072BD50600982040002B1832000C
:1040A00011327169280001F0C7FF07000CD1207D93
:1040B000002826D0E0781449627D895C4018E070C1
:1040C000717C081A20711CE020880295810B0191F7
:1040D00088214900691800910005830F8C20400059
:1040E0002A1818302918380000F053FA09E026750C
:1040F00066750822002198204000281818F0EEFA72
:10410000A6753800FEBD0000CC5B0000F8B58AB093
:1041100004000D00FFF7B4FF002817D1AA6B002A96
:1041200004D029002000526890470400002C0DD0D4
:10413000882040002E186069F17D47180720B18A59
:10414000014004D001290AD003290DD0E9E02A005A
:104150006946200000F0EAF80028F7D0E0E02900E6
:10416000200000F0BDF9DCE09C2149006A18397894
:10417000491E0729F7D802A35B5C5B009F4400BF80
:104180003CD14904616B85B425202070308A20839E
:10419000B08A800B207203CE083E2200103203C288
:1041A000296820006A6B9047002402A80E21017044
:1041B0001021017269460591A9684170696805F08E
:1041C00049FD68460078002815D0280000F0B7FAAD
:1041D000002810D131002800243002F027FBA8630A
:1041E000002805D02A00C16800F00DFB00286BD024
:1041F000280000F066FC94E08121695C0129FAD175
:104200006021695C0029F6D0207078782121605403
:1042100023E00B20207003CE2300083303C3107863
:1042200060745078A07490782021605408229820FF
:10423000400029182000183018F0E8F97878207428
:104240001EE0029500200190280060304078009028
:10425000738AEE225EE01320207003CE2300083321
:1042600003C31078207450786074907820216054D3
:1042700008229820400029182000183018F0C6F9AC
:10428000296820006A6B90474AE0286800E000BF78
:104290006020285C002844D0BA20285C0F2840D138
:1042A00028006030807800283BD1280000F047FAD1
:1042B000002836D1032102F0DEFAA8632A0000218B
:1042C00000F0A1FA002803D1280000F020FD28E02A
:1042D000A86B002825D080680FF03EFBA86B0FF07C
:1042E0003BFB0020A8631CE06020285C002818D15C
:1042F000B08A8004800F012801D1387A00E00020C4
:104300007B78B9780906090C0B43029501907879FE
:104310000090EF22982040002918200000F08AF930
:10432000002420000FF018FB0BB0F0BDF8B584B0EE
:1043300005000E0014006869902149006118C979D0
:10434000401801901F220021300018F0C7F990207A
:10435000400020188088800BB0728820400021180F
:10436000B07A022801D1022200E00822300018F0C1
:104370004DF990204000205A3072000A7072A06BF4
:10438000002806D00178132901D0142901D1807C9E
:1043900001E06120205CF072287C30740322290047
:1043A00008313000113018F031F9002737739020B0
:1043B00040002018007E3075902040002018407E7C
:1043C0007075902040002018807EB07708229820D9
:1043D000400021183000163018F018F90222019917
:1043E00030000D3018F012F92100300000F04FF9C4
:1043F00000280DD0029401976120205C009090204D
:104400004000235AEE220021280000F013F962E058
:10441000F7730198C178072207230B4000930B091B
:104420001A406B465972001D0190039000980028B5
:1044300004D001980099490040180190002A03D047
:104440000198D100401801906869697C4018019971
:10445000884202D2002D40D13DE0401A69460872E0
:104460008220205C002803D06846007A002830D0E3
:104470007246C448017857200FF012FA00900028C5
:1044800027D00D20009908706846007A009988723C
:1044900001980099486103980099C86000983830E5
:1044A000009908611F2231000098006918F0AEF8E9
:1044B0006846407A00994872902040002018807920
:1044C000009908720098856121680098626B904796
:1044D00001E0002D01D1012000E0002005B0F0BD79
:1044E000F8B507000E007246882040003518A54830
:1044F0000178287E40300FF0D3F90090044608344C
:10450000002845D0A87D60772800083003C803C480
:10451000083CA88A0005800FA072688A20819C2030
:104520004000301801782422A15441782522A1545A
:1045300080783021605408229820400031182000F3
:10454000283018F063F8387C20772000383060631A
:104550002A7E7869E97D4118606B18F057F8287E4B
:10456000E07603CD083D2200103203C2A88A800BFA
:10457000A076288A20833800083003C80002000A89
:10458000206202200099087031680098326B9047D1
:10459000F1BDF7B506000D001F007246794801789D
:1045A00038200FF07DF9040043D029001B20207033
:1045B00021202654002910D0087A2222A054087AFB
:1045C00000280AD0487A2322A054887A3022A054A6
:1045D00008222000283018F019F80A9D099A684628
:1045E00007707620285A208268460078202160547F
:1045F000A274002000212300083303C323001833D2
:1046000003C3022A00D0082208992000083017F0BE
:10461000FDFF68460078022801D1022200E008224E
:1046200002992000183017F0F1FF296820006A6B0A
:104630009047F7BDF8B50E0015001F00002808D1FF
:1046400072465048017838200FF02AF9040001D151
:10465000F1BD040006983100212222702572678185
:10466000207300290DD0087AA073087A002808D09A
:10467000487AE073887A207608222000103017F0FC
:10468000C5FF089A11682000526B9047F1BDF0B544
:104690000024427B837B1B061B0C1A430125920BD3
:1046A0002A4221D0037A427A1206120C13430A00DE
:1046B0006032D68AB34217D16023CB5C022B12D072
:1046C0008023C95C00290FD0817A022902D1968A01
:1046D000002702E011000831C0C901F06DFFB942A6
:1046E00001D1B04200D001242000F0BDD0B50400BB
:1046F000227A607A0006000C024308006830C38901
:104700009A4218D1A27A022A0CD186890027200069
:1047100001F052FF02001C4800211040220001F06D
:1047200063FF01E08E6ECF6E200001F045FFB942BD
:1047300001D1B04201D00020D0BD0120D0BDF8B5DC
:10474000050000260024A86B002819D0E96B002979
:1047500009D141680D4A914205D10178062904D159
:104760000069002801D0E2240AE0FF203C302F1825
:10477000387806F029FAFF203870A86BE863AE633A
:104780002000F2BD8EFD0100FFFF0000FD4C000087
:1047900010B504006420085C012802D10020232108
:1047A0006054207C617C002903D1002801D1F520D0
:1047B00010BD042823DA042921DA022806D12000BA
:1047C000083003C880B29549884218DA200001F009
:1047D00039F82021615C884201D2E52010BD2220F9
:1047E000205C800701D5E62010BD2320205C002836
:1047F00007D0082803DA2420205C042801DBE82005
:1048000010BD002010BDF8B50600002401206B4645
:104810001870002E59D00D000CD13078032809D023
:10482000182807D00B2805D0132803D0152801D04D
:10483000E824DDE01700B068002827D1307803288D
:1048400013D0062802D0182813D014E0280008300E
:1048500001F010F82821695C401820302A21695C99
:10486000C90609D56A46147006E0B920385C6B3079
:1048700002E02D2000E060207246674909780FF0C1
:104880000FF8B060002801D1F120F2BDB068083007
:104890000100143101613178002917D0891E30D010
:1048A000491E40D0491E58D0891E4DD0491E31D0D6
:1048B000C91E52D0491E58D0491E01295CD9C91FB2
:1048C00062D0891E67D0C91E34D06CE00369020033
:1048D0000F3229000831380000F0CCFA0400A8D1CA
:1048E0003900300000F03AFAB2684DA003C8130056
:1048F000083303C368460078002856D0012050755D
:1049000057E0036902000F3229000831380000F037
:10491000E5FAE3E7036902000F32290008313800A5
:1049200000F01CFBDAE7036902000F32380000F0E8
:104930008FFCD3E7036902000F328820400039184A
:10494000380000F0A9FECBE7036902000F3229000E
:104950000831380000F05CFDC0E7036902000F3247
:104960002900380000F0DEFBB8E7026901000F31D2
:10497000380000F086FBB1E7036902000F3229001E
:10498000380000F023FBA9E7026901000F3138006D
:1049900000F0A9FBA2E7036902000F3229003800EA
:1049A00000F088FB9AE7F12422E0042050750020F3
:1049B000B070B068002101700D2202758269127812
:1049C000920609D58175C17D49007E22BA5A89189F
:1049D000427D042A0AD106E001218175417D042926
:1049E000C17D02D14900103101E04900243101614B
:1049F0002000F2BD80B5FF21FF223C328154816B43
:104A0000AB4A4A60826889684A704168806B8068F6
:104A100005F0C8F801BD00008EFD0100FEFF00009A
:104A2000FFFFFFFFFFFFFFFF38B505000C0000216F
:104A30002878012839D0022841D0072825D010280D
:104A400006D1A06B0269002A07D00122C270A163BF
:104A500028000EF081FF002032BD8168897D012988
:104A60001FD0C178C022A25C914204D12200E9216A
:104A700000F044F8ECE7491CC1702100A06B00F085
:104A80006DF9200000F043F9E2E7A8780028DFD1B3
:104A9000A06B00690028DAD1200000F01BF9012882
:104AA000EFD02200E121A06BE2E7A06B297A152963
:104AB00002D122000021DBE72200EB21D8E7280009
:104AC00032BD10B504001821002001F0D4FEA0630F
:104AD00022000021FFF797FE002803D1200000F0FC
:104AE00016F910BDA06B002807D080680EF034FFC7
:104AF000A06B0EF031FF0020A06310BDF8B588B0A8
:104B00000C00EB2C00D100240500160028780D289D
:104B10005FD801A2125C97440C2418B870B87C2EA0
:104B2000B8B83A46666632002100E868FFF708FA2E
:104B300078E032002100E868FFF77AFA49E03200B5
:104B4000E868FFF730F96DE032002100E86800F016
:104B500071F93EE032002100E86801F092FD38E092
:104B6000002C36D10296002001906120305C00902C
:104B70007620335AEE2200210020FFF75BFD28E06B
:104B80003200E868FEF721FB4CE032002100E868C3
:104B9000FFF769F846E02869002803D0EF68002095
:104BA000E86001E0AF68A860002F12D001203870E3
:104BB000E87D387205F054FF0002000AF8607C724C
:104BC000C020305CE978401A387431683800326BA4
:104BD00090472869002818D0280017F096FAE8684E
:104BE0000EF0BAFE0020E860A98A3000243001F0FF
:104BF00000FE002809D16846A97D017205210170D7
:104C0000B1684170716804F0CDFF0024B06BA84218
:104C100000D1B463002D05D0A8680EF09DFE2800D9
:104C20000EF09AFE09B0F0BDF8B584B0070024304C
:104C300017F026FC06003800243017F033FA040081
:104C400001E0401A28613000461E002811D02500DE
:104C5000280017F03FFA04002869396D8142F0D32B
:104C6000B86B8542EFD03A00F0212800FFF746FFED
:104C7000E9E7786A002817D03800243017F012FAD4
:104C800004002069386505F0EBFE22690023121844
:104C90004B41BA64FB642E480290039768460CC0EF
:104CA000684605F01DFF00E0386505B0F0BD000066
:104CB000294A00001CB50400684616F02DFF009933
:104CC0000120A26B92789040401E08401421484376
:104CD00080B216BD816B4A78521C4A70816BBE301F
:104CE00042784B789A4201D2002070478A78007847
:104CF000824201D2521C8A70012070470178022939
:104D000000D1704780B50EF027FE002002BD38B5F7
:104D100084B00400FFF7CEFF050005F0A1FE002DD2
:104D200003D12000FFF766FE10E00A4AA36B5A6029
:104D3000094A0292039400232A184B4168460CC08A
:104D4000684605F0CDFEFF213C31605405B030BD12
:104D5000852B0000FD4C0000F54900000022427048
:104D6000C122895C8170704730B50400A07A0228A6
:104D700001D0032837D1E27A012A01D0022A32D1A8
:104D80000D0060352289EB8A9A422CD16022895C21
:104D9000227B002A01D0002925D0002915D1022824
:104DA00008D1AA8A002303CC083C8B421BD1824243
:104DB00019D10AE0032808D1280008300CC803CC18
:104DC000083C8B420FD182420DD1287900280CD1AA
:104DD000607B082807DA002809D0A07B042802DAC3
:104DE000207E002803D1E82030BD00206073002021
:104DF00030BD38B505000C00072101F03CFDA06373
:104E000022002900FFF7FFFC010003D12000FFF77B
:104E10007EFF31BD2200280000F00CF8A06B0028B6
:104E200007D080680EF098FDA06B0EF095FD002075
:104E3000A06331BD38B5040015000C202070E1746A
:104E4000002910D128005430017B00290BD10849DA
:104E50000184818441845421695A18220A430280C2
:104E60002800FDF7BEFD296820006A6B904731BD20
:104E7000FFFF0000F8B58AB007000C0016001D0007
:104E80009C2040003818217B0170217B00290BD029
:104E9000617B4170217E81700822210010319820B1
:104EA0004000381817F0B2FB9820400038180990DD
:104EB00008950796200019300690B86DF96D04909A
:104EC0000591974803900320029003CC083C009082
:104ED00001912389A27A0121380073E0F0B58BB0EB
:104EE00006000C0015001F009C2040003018A17A1D
:104EF0000170A17A00290BD0E17A4170217E817086
:104F000008222100103198204000301817F07EFB55
:104F1000607E002801D1208900E081480A90607EEF
:104F20000AA9887030005830C38B98204000301890
:104F30000990089707950AA80690B06DF16D049046
:104F4000059103930320029003CC0090019103226A
:104F50000221300000F0B4FC0BB0F0BDF8B58AB00F
:104F600006000C0015001F009C2040003018617BDB
:104F70000170617B00290BD0A17B4170217E817083
:104F800008222100103198204000301817F03EFB15
:104F900030005830C38B9820400030180990089793
:104FA000079520000B300690B06DF16D04900591CF
:104FB00003930320029003CC083C00900191A27A55
:104FC0000321300000F07CFC0BB0F0BDFEB58AB0D0
:104FD00006000C00350058353700CA3720780628FF
:104FE0001DD0222807D1288C984A90422EDB03221C
:104FF000B06DF16D2CE0982040003718207E38729B
:10500000002809D0607E78722820205CB8720822BF
:105010002031380017F0FAFA20780628E3D10997F2
:105020000C9808900B98079000200690B06DF16DD9
:1050300004900591E88B0390032002902000083033
:1050400003C800900191238AA27C14E0022200216F
:1050500009970C9B08930B9B0793002306930490DE
:105060000591E88B039002922000103003C8009055
:1050700001916389227A0421300000F021FC0DB0F7
:10508000F0BD38B58AB07623C35A0400CA340994F7
:105090000892079100210691846DC56D04940595D1
:1050A000039303210291846EC56E0094019503223F
:1050B000052114E038B58AB01C00194B09910894F9
:1050C000079200210691846DC56D049405950393A4
:1050D000032102910025009301950222062100F090
:1050E000EFFB0BB030BD10B58AB000239C246400E8
:1050F000035598235B00C318099308920791002178
:1051000006910491059103910291BC4A009201918C
:1051100013460222072100F0D3FB0AB010BD0000A5
:10512000FFFF0000FCB58DB007000D000AAC0020A9
:1051300020723E0058369C204000381829781429E7
:1051400036D1E97C017000290CD0297D41702021E5
:10515000695C8170082229001831982040003818B5
:1051600017F054FAF08B6070000AA070707A6071CA
:10517000288AE080308CE070000A2071982040007E
:10518000381809900E9808900D980790601C0690AA
:10519000B86DF96D04900591F08B03900320029097
:1051A0002800083003C800900191944B032246E088
:1051B000E97A032910DA0E9A117853781B061B0C32
:1051C000194313468E4A0A40802149011143197040
:1051D000090A5970E97A2172697D017000290CD0A1
:1051E000A97D41702021695C817008222900183155
:1051F00098204000381817F009FA28896070000AD2
:10520000A070A87A60717D4BE380308CE070000A5A
:10521000207198204000381809900E9808900D9839
:105220000790601C0690B86DF96D04900591F08BA5
:105230000390032002900021009301910222082193
:10524000380000F03DFB0FB0F0BD0000FEFF000095
:10525000F7B505001C00002727706770207861787B
:105260000906090C0843674901402170090A617069
:105270002800B9308078411C2A00B9329170A070A2
:10528000022229007631E01C17F0C0F97820285A54
:105290005D4988422078617812D00906090C0843DC
:1052A0008004800C8021090201432170090A617089
:1052B000022229007831601D17F0A8F9E61D10E0E0
:1052C0000906090C0843C021090201432170090A9B
:1052D0006170082229005831601D17F097F92600E7
:1052E0000D362800B930407E00281FD02078617824
:1052F0000906090C0843082101432170090A61705D
:10530000207861780906090C08433D490140802056
:10531000400108432070000A60702B00CA3321004E
:10532000721AD2B2280000F03FFE36182800B930B9
:10533000407869460988354A0A400007000F104343
:10534000694608802800B930C07B0988D04A0A40E5
:1053500000011043F0210901014368460180290042
:1053600081318A78038826481840120380235B0124
:105370001A400243684602806020285C022801D15E
:10538000980000E000206A461288C24B1340184380
:105390006A4610800878694609884904490CC003A8
:1053A0000843694608800222300017F02FF9B770D1
:1053B000F770361DB9202A5C301BC0B280187E28D9
:1053C00001D3E52718E0002A07D0290085313000F5
:1053D00017F01CF9B920285C3618029A301B10709F
:1053E0002800B930407E002806D02B00CA332100A7
:1053F000280000F0FDFC07003800FEBDFFFF0000A4
:10540000FFCF0000F8FF0000FEFF0000F0FF0000EB
:10541000F4B584B002000D001E0000270020C04338
:10542000014602AB03C33770777030787178090694
:10543000090C0843C6490140012008433070000AA6
:105440007070317870780006000C0143C148084044
:105450002221695C49012023194001433170090A66
:105460007170317870780006000C0143BA4808402A
:10547000697C8902C0231B010B40034333701B0A64
:105480007370307871780906090C08438004800C29
:10549000297C890301433170090A71702220285C3C
:1054A000400609D5307871780906090C08431021A7
:1054B00001433170090A717000921046BC300178C6
:1054C0004A1C0270B170F41C687C022802D00328C8
:1054D00010D033E0022229001231200017F096F894
:1054E000A41C022229001831200017F08FF8A41CF8
:1054F00002220EE0022229001231200017F086F865
:10550000A41C082229001831200017F07FF8083465
:10551000082202A92800183017F0B7F800280DD08B
:105520002220285CC00709D5307871780906090C5B
:105530000843884901403170090A71708748297C05
:10554000002921D0697C00290ED0698A2A889142DD
:105550000AD1307871780906090C084340210143CB
:105560003170090A717018E0317872781206120CE5
:10557000114308403070000A707002222900200098
:1055800017F044F8A41C08E0317872781206120C67
:10559000114308403070000A7070287C022802D045
:1055A000032808D00EE0022229000831200017F05D
:1055B0002DF8A41C06E0082229000831200017F06D
:1055C00025F80834009898214900401801902320BC
:1055D000285C002831D0307871780906090C08431E
:1055E000082101433170090A717030787178090619
:1055F000090C0843B1490140802040010843307044
:10560000000A707000989C21490040182321695CB1
:1056100001702421695C41703021695C817008222D
:1056200029002831019816F0F1FF019B3100621A20
:10563000D2B2009800F0B8FC241820202A5C696BD4
:10564000200016F0E3FF2020285C67280CD3307878
:1056500071780906090C08439849014080204001EF
:1056600008433070000A7070049AA01B2021695C06
:10567000401810702320285C002805D0019B3100C1
:10568000009800F0B5FB0700380005B0F0BD000041
:105690000FFF0000FFBF0000F8B50D0017001E004F
:1056A000002131707170317872781206120C11433A
:1056B000274A0A40012111433170090A717032787A
:1056C00071780906090C0A4323491140AA8A920BF2
:1056D00092020A433270120A72703178727812069E
:1056E000120C11438904890C3170090A7170BC30A5
:1056F00001784A1C0270B170F41CA88A800B022841
:1057000002D0032810D01FE002222900103120000F
:1057100016F07CFFA41C02222900200016F076FF60
:10572000A41C3878001D0EE0022229001031200050
:1057300016F06CFFA41C08222900200016F066FF5A
:10574000083438780A303870A01B38700020F2BD59
:10575000F8FF0000DFFF0000FFF30000BFFF0000C4
:10576000F8B506000D000127F46802222100280088
:10577000143016F04BFFA078A875E41C0020688256
:1057800000212A00083203C2A88A800A80071DD09F
:10579000022221002800123016F038FFA41CA88A2B
:1057A0000005800F022802D0032808D00EE0022254
:1057B00021002800083016F029FFA41C06E008226A
:1057C00021002800083016F021FF0834002028822C
:1057D000002103C5083DA88A810B20D08009C0079D
:1057E00002D5688A288206E00222210028001030B3
:1057F00016F00CFFA41CA88A800B022802D00328F4
:1058000007D00CE002222100280016F0FFFEA41CA5
:1058100005E008222100280016F0F8FE0834F068A0
:10582000201AE875717A091A2976CAB2772A06D23F
:10583000727AC9B28A4202D3C0B2824200D2002731
:105840003800F2BD10B5417C04290ADA017C042934
:1058500007DA2321415C002905D02421415C042979
:1058600001DB002003E07D2400F004F8201AC0B220
:1058700010BD000010B501000A7C4B7CA5A0C45CE3
:10588000805C2018C01C80B2002A06D0002B04D0F7
:105890004A8A0B889A4200D1801E23228A5C002A01
:1058A0000AD0964B2424095D595C40189107890F52
:1058B00002D002228A40801880B210BDFFCF0000C3
:1058C000F9B581B00D001700109EF41C0020694648
:1058D000087030707070307871780906090C0843D0
:1058E000202101433170090A7170307871780906FE
:1058F000090C084382490140032008433070000A24
:105900007070317870780006000C01437D480840C3
:10591000B902C02212010A4002433270120A7270A8
:10592000307871780906090C08438004800C0AA9B4
:105930000978890301433170090A71700198BC30FC
:1059400001784A1C0270B170022F02D0032F0DD0D3
:1059500018E0022202A9200016F058FEA41C022220
:1059600008A9200016F052FEA41C0BE0022202A996
:10597000200016F04BFEA41C082208A9200016F0F7
:1059800045FE08340AA8007800282AD06846008915
:105990006946898D88420AD1307871780906090CE8
:1059A0000843402101433170090A717005E0022269
:1059B0000BA9200016F02AFEA41C0AA800780228D1
:1059C00002D0032807D00CE002220CA9200016F018
:1059D0001DFEA41C05E008220CA9200016F016FEEE
:1059E00008341198007A00281ED0307871780906A2
:1059F000090C0843082101433170090A717030789D
:105A000071780906090C08433F4901408020400194
:105A100008433070000A7070119B3100621AD2B2D4
:105A2000019800F0C1FA241828002070641C0E9D13
:105A3000401E0AD0401E0CD0401E06D0C01E0128B9
:105A400011D9801E1AD0401E47D1002D45D028788C
:105A500041E0002D41D02878207068786070A878E7
:105A6000A070E41C39E0307871780906090C08430D
:105A7000264901403170090A71702EE0002D2CD0AA
:105A800007222900200016F0C1FDE41D022F24D1B9
:105A900008A803C81E4A002399421ED190421CD177
:105AA000307871780906090C0843184901403170B3
:105AB000090A7170E87902280FDC307871780906DC
:105AC000090C084310490140802040010843307010
:105AD000000A7070E8792070641C0F9AA01B107087
:105AE0001198007A002806D0119B3100019800F02F
:105AF0007FF96946087068460078FEBDCC5B0000FF
:105B0000F8FF0000FFF30000FFCF0000DFFF000000
:105B1000FFFF00000000040A38B505007246104877
:105B2000017828000DF0BCFE040003D02A000021FB
:105B300016F0D4FD200032BD80B5012802D9C01E68
:105B400005D00BE07246064801787F2003E07246DC
:105B50000348017840200DF0A3FE02BD002002BDE5
:105B60008EFD010080B501000222684616F04EFD50
:105B70009E48694609880905890F415C6A46128872
:105B8000920B805C0818694609888909C90702D503
:105B9000010600D0801EC0B202BD00001CB50C0082
:105BA00002220100684616F031FD68460088C008F0
:105BB000C00705D5207A002806D0607A042801DBCA
:105BC000002016BD01A1085C16BD000005060A0EE6
:105BD0007CB505000E00002402222900684616F05C
:105BE00015FD072069460988014003D0032917D114
:105BF000012415E0AA19931C03211B78034203D04A
:105C0000184041000918091DC8B210180078420058
:105C10000E2313404008382202409818401C0C18EC
:105C2000E0B276BDF8B584B004000F0015001E0088
:105C300000202100EC31009101E00398401C009904
:105C4000097D884229D2002441010291039000E09D
:105C5000641C0098006802994018417B8C42ECD289
:105C6000290001D1052200E009220A2161430191A6
:105C700039000068019BC01816F007FD0028E7D026
:105C800000980068029940180168019A8918497AB9
:105C9000A942DDD13060012000E0002005B0F0BD58
:105CA0000422042303400A40934206DB03221040EF
:105CB0000A40904201DB0120704700207047FEB58A
:105CC00001240025F83001900E001700684603708B
:105CD00017E0002414E069460978427891420FD118
:105CE00081783000FFF7DCFF002809D101980068B7
:105CF00002994018C0780128EBD13000E9D1022484
:105D00006D1C0198C07A854211D2A80002900198BA
:105D100000680299401802789742F1D1032FDAD037
:105D200081783000FFF7BCFF0028E9D1DEE72000D2
:105D3000FEBDF1B584B00D0000260027C721405CF0
:105D4000002804D1287A002801D0DF204CE00498F4
:105D5000E030C1690022D243914201D1DB2043E00F
:105D60006C46697A002905D0022922D01DD3032967
:105D700027D02EE000888B4988420DDA0222049950
:105D80007631684616F042FC022204997831A01C54
:105D900016F03CFC26711CE01BD108220499D83176
:105DA000684616F033FC267212E008220499E231AC
:105DB00009E004222900684616F028FCA87A207120
:105DC00007E008222900684616F020FCA87A207215
:105DD000012703AB3A0069460498FFF723FF012827
:105DE00001D1002000E0F32005B0F0BD145B0000FD
:105DF000F0B591B01F003B7A002B00D1CCE00190B0
:105E0000C724005D002801D1DF20C6E00320032461
:105E10001C400025230004D00223A3406C462370BD
:105E200001E06B461D70029212786B461B78D21807
